:100000000C9438000C9494000C9494000C9494007C
:100010000C9494000C9494000C9494000C94940010
:100020000C9494000C9494000C9494000C94940000
:100030000C9494000C9494000C9494000C949400F0
:100040000C9494000C9494000C9494000C949400E0
:100050000C9494000C9494000C9494000C949400D0
:100060000C9494000C9494000100011000013600DF
:1000700011241FBECFEFD8E0DEBFCDBFE8E6F0E031
:1000800040E017C0B591A59135912591059107FDE7
:100090000CC095918591EF01F92FE82F05900D92F5
:1000A000A217B307D9F7FE0104C01D92A217B30728
:1000B000E1F7EF36F40731F70E9462000C948500F7
:0400C000F894FFCFE2
:1000C4000E949000809100018BB92FEF39E688E1FE
:1000D400215030408040E1F700C0000081E0E82F6B
:1000E400F0E0E050FF4F90819BB99FEF29E638E1A3
:1000F400915020403040E1F700C000008F5F803114
:0601040070F380E0ECCF77
:10010A00EC010E9499000E949800CE010E949A0078
:06011A00CE010E949600D8
:080120008FEF8AB91BB80895A6
:040128000C94000033
:04012C000E946000CD
:02013000089530
:0201320008952E
:0201340008952C
:100136003F065B4F666D7D077F6F777C395E797111
:00000001FF
